:02000000FE2FD1
:100BA400FD01F91FDC2DF809F909F80A0319F90AFE
:100BB400FD01FD0A7808F0007908F100F2018E3099
:100BC400FB007B08F3007D08FC007C08F40033265E
:100BD4007008F8007108F9007208FA00080083161A
:100BE40003138601831203138601FC30BE003E0802
:100BF400831603138505FC3083120313BE003E08DD
:100C040085056430C2000030C30085144308F90030
:100C14004208F800D225780883120313A300790848
:100C2400A4007A08A5000030A0007A30A100443066
:100C3400A2002D27831203132008B0002108B1005D
:100C44002208B2009F26831203133008BE00310825
:100C5400BF003208C0003308C1008312031385109B
:100C6400072E730803193B2E720871047004031DC8
:100C74004E2E0030F0000030F1000030F200080089
:100C84000130F5007508F30701300310F20CF10C84
:100C9400F00CFF3E031D472EFE3072050319692E2A
:100CA400422E0130F5007508F3070130F0070030DB
:100CB40003180130F107003003180130F207013046
:100CC4000310F20CF10CF00CFF3E031D622EFF30FA
:100CD40072050319782E532E0130F30201300310EC
:100CE400F00DF10DF20DFF3E031D712EF11B7E2E52
:100CF4000230730203186E2E7318862EFF30F0052F
:100D04007F30F105FF30F2050310F30C7308F50092
:100D1400F601F70110300310F50DF60DF70DFF3E47
:100D2400031D8D2E7508F0047608F1047708F2048B
:100D3400740803190800F21708008312031330081B
:100D4400B4003108B5003208B6000310350D360D75
:100D5400B7003708BD003D08031DB92E0030B300AD
:100D64000030B2000030B1000030B000080030089C
:100D7400B4003108B5003208B60017300310B60CC1
:100D8400B50CB40CFF3E031DC02E3408B700370861
:100D9400B800B117FF30B005FF30B1050030B2051F
:100DA4003008B9003108BA003208BB00BC018E30EB
:100DB400BD02BD1FFB2E3D08803A8F3E0318EB2E6B
:100DC4000030B3000030B2000030B1000030B00099
:100DD400080001300310BC0CBB0CBA0CB90CFF3E6C
:100DE400031DEC2E0130B4003408BD070319162F7F
:100DF400EB2E18303D02031C132F0030B3000030DB
:100E0400B2000030B1000030B00008000130B4007E
:100E14000310B90DBA0DBB0DBC0DB40B0A2F013074
:100E2400BD023D08031D082F38080319242FB909F2
:100E3400BA09BB09BC09B90A0319BA0A0319BB0ADE
:100E44000319BC0A3C08B3003B08B2003A08B100DD
:100E54003908B0000800831203132008A6002108F3
:100E6400A7002208A8000310270D280DA9002908AF
:100E7400AA002A08031D452F0030A0000030A1005D
:100E84000030A20008002308A6002408A7002508B3
:100E9400A8000310270D280DA9002908AF002F086A
:100EA400031D5B2F0030A0000030A1000030A20021
:100EB40008002F087B3EA6002608AA072008A600E3
:100EC4002108A7002208A80010300310A80CA70CC2
:100ED400A60CFF3E031D672F2608A9002908AF00B2
:100EE4002308A6002408A7002508A8001030031032
:100EF400A80CA70CA60CFF3E031D792F2608A900F9
:100F04002908AF068030A6002608AF05A117A4174C
:100F1400FF30A305FF30A4050030A5050030AB0069
:100F24000030AC000030AD000730A6002608AE004B
:100F3400201CAA2F2308AB07240803110318240A32
:100F4400031DAC07250803110318250A031DAD076B
:100F540001300310A20CA10CA00CFF3E031DAB2F0B
:100F640001300310A30DA40DA50DFF3E031DB32FE7
:100F74000130AE02031D9A2F0930A6002608AE00E8
:100F8400201CD22F2308AB07240803110318240ABA
:100F9400031DAC07250803110318250A031DAD071B
:100FA40001300310A20CA10CA00CFF3E031DD32F93
:100FB40001300310AD0CAC0CAB0CFF3E031DDB2F5A
:100FC4000130AE02031DC22F2B08F0002C08F100E3
:100FD4002D08F2002A08A6002608F3002F08A7000F
:100FE4002708F4003326700883120313A000710845
:0C0FF400A1007208A20008008301F12D8A
:02400E00FFFFB2
:00000001FF
