:02000000FE2FD1
:100CBE008312031306140330F2008A30F10055300C
:100CCE00F000F00B682EF10B682EF20B682E6F2ED3
:100CDE008312031306100800831203130614023046
:100CEE00F2000430F100BA30F000F00B7C2EF10B64
:100CFE007C2EF20B7C2E00008312031306100800CC
:100D0E000730831203139F048316031306105F2606
:100D1E000330F5008A30F4005530F300F30B952EB6
:100D2E00F40B952EF50B952E9C2E73260330F500A5
:100D3E008A30F4005530F300F30BA32EF40BA32EE0
:100D4E00F50BA32EAA2E5F260330F5008A30F40091
:100D5E005530F300F30BB12EF40BB12EF50BB12E73
:100D6E00B82E73260330F5008A30F4005530F300A8
:100D7E00F30BBF2EF40BBF2EF50BBF2EC62E5F2628
:100D8E000330F5008A30F4005530F300F30BCD2E0E
:100D9E00F40BCD2EF50BCD2ED42E5F260330F500A1
:100DAE008A30F4005530F300F30BDB2EF40BDB2E00
:100DBE00F50BDB2EE22E73260330F5008A30F4009D
:100DCE005530F300F30BE92EF40BE92EF50BE92E5B
:100DDE00F02E5F260330F5008A30F4005530F30014
:100DEE00F30BF72EF40BF72EF50BF72EFE2E5F26D8
:100DFE000330F5008A30F4005530F300F30B052F65
:100E0E00F40B052FF50B052F0C2F73260330F50071
:100E1E008A30F4005530F300F30B132FF40B132F1D
:100E2E00F50B132F1A2F5F260330F5008A30F400CE
:100E3E005530F300F30B212FF40B212FF50B212F3F
:100E4E00282F5F260330F5008A30F4005530F3006A
:100E5E00F30B2F2FF40B2F2FF50B2F2F362F5F2683
:100E6E000330F5008A30F4005530F300F30B3D2FBC
:100E7E00F40B3D2FF50B3D2F442F73260330F50059
:100E8E008A30F4005530F300F30B4B2FF40B4B2F3D
:100E9E00F50B4B2F522F5F260330F5008A30F400EE
:100EAE005530F300F30B592FF40B592FF50B592F27
:100EBE00602F5F260330F5008A30F4005530F300C2
:100ECE00F30B672FF40B672FF50B672F6E2F73261F
:100EDE000330F5008A30F4005530F300F30B752F14
:100EEE00F40B752FF50B752F7C2F73260330F50041
:100EFE008A30F4005530F300F30B832FF40B832F5D
:100F0E00F50B832F8A2F73260330F5008A30F400F9
:100F1E005530F300F30B912FF40B912FF50B912F0E
:100F2E00982F73260330F5008A30F4005530F30005
:100F3E00F30B9F2FF40B9F2FF50B9F2FA62F5F26E2
:100F4E000330F5008A30F4005530F300F30BAD2F6B
:100F5E00F40BAD2FF50BAD2FB42F73260330F50028
:100F6E008A30F4005530F300F30BBB2FF40BBB2F7C
:100F7E00F50BBB2FC22F5F260330F5008A30F4002D
:100F8E005530F300F30BC92FF40BC92FF50BC92FF6
:100F9E00D02F73260330F5008A30F4005530F3005D
:100FAE00F30BD72FF40BD72FF50BD72FDE2F5F2692
:100FBE000330F5008A30F4005530F300F30BE52FC3
:100FCE00F40BE52FF50BE52FEC2F5F2683120313A1
:100FDE0006103330F500BB30F400DF30F300F30BB6
:100FEE00F62FF40BF62FF50BF62FFD2F8E2E830119
:020FFE00872E3C
:02400E0019FF98
:00000001FF
