:02000000FE2FD1
:100D9E008312031306140830F2009D30F100053063
:100DAE00F000F00BD82EF10BD82EF20BD82EDF2E32
:100DBE008312031306100800831203130614033064
:100DCE00F2008A30F1005530F000F00BEC2EF10BF2
:100DDE00EC2EF20BEC2EF32E8312031306100800EA
:100DEE000730831203139F04831603130610CF26B6
:100DFE000630F5001330F400AD30F300F30B052F81
:100E0E00F40B052FF50B052F0C2FE3260630F500FE
:100E1E001330F400AD30F300F30B132FF40B132F3C
:100E2E00F50B132F1A2FCF260630F5001330F400D2
:100E3E00AD30F300F30B212FF40B212FF50B212FE7
:100E4E00282FCF260630F5001330F400AD30F30016
:100E5E00F30B2F2FF40B2F2FF50B2F2F362FCF2613
:100E6E000630F5001330F400AD30F300F30B3D2FD8
:100E7E00F40B3D2FF50B3D2F442FE3260630F500E6
:100E8E001330F400AD30F300F30B4B2FF40B4B2F5C
:100E9E00F50B4B2F522FCF260630F5001330F400F2
:100EAE00AD30F300F30B592FF40B592FF50B592FCF
:100EBE00602FCF260630F5001330F400AD30F3006E
:100ECE00F30B672FF40B672FF50B672F6E2FE326AF
:100EDE000630F5001330F400AD30F300F30B752F30
:100EEE00F40B752FF50B752F7C2FE3260630F500CE
:100EFE001330F400AD30F300F30B832FF40B832F7C
:100F0E00F50B832F8A2FE3260630F5001330F400FD
:100F1E00AD30F300F30B912FF40B912FF50B912FB6
:100F2E00982FE3260630F5001330F400AD30F300B1
:100F3E00F30B9F2FF40B9F2FF50B9F2FA62FCF2672
:100F4E000630F5001330F400AD30F300F30BAD2F87
:100F5E00F40BAD2FF50BAD2FB42FE3260630F500B5
:100F6E001330F400AD30F300F30BBB2FF40BBB2F9B
:100F7E00F50BBB2FC22FCF260630F5001330F40031
:100F8E00AD30F300F30BC92FF40BC92FF50BC92F9E
:100F9E00D02FE3260630F5001330F400AD30F30009
:100FAE00F30BD72FF40BD72FF50BD72FDE2FCF2622
:100FBE000630F5001330F400AD30F300F30BE52FDF
:100FCE00F40BE52FF50BE52FEC2FCF268312031331
:100FDE0006103330F500BB30F400DF30F300F30BB6
:100FEE00F62FF40BF62FF50BF62FFD2FFE2E8301A9
:020FFE00F72ECC
:02400E00193F58
:00000001FF
