:02000000FE2FD1
:100CBE008312031306140830F2009D30F100053044
:100CCE00F000F00B682EF10B682EF20B682E6F2ED3
:100CDE008312031306100800831203130614033045
:100CEE00F2008A30F1005530F000F00B7C2EF10B43
:100CFE007C2EF20B7C2E832E83120313061008001B
:100D0E000730831203139F048316031306105F2606
:100D1E000630F5001330F400AD30F300F30B952ED2
:100D2E00F40B952EF50B952E9C2E73260630F500A2
:100D3E001330F400AD30F300F30BA32EF40BA32EFF
:100D4E00F50BA32EAA2E5F260630F5001330F40005
:100D5E00AD30F300F30BB12EF40BB12EF50BB12E1B
:100D6E00B82E73260630F5001330F400AD30F300C4
:100D7E00F30BBF2EF40BBF2EF50BBF2EC62E5F2628
:100D8E000630F5001330F400AD30F300F30BCD2E2A
:100D9E00F40BCD2EF50BCD2ED42E5F260630F5009E
:100DAE001330F400AD30F300F30BDB2EF40BDB2E1F
:100DBE00F50BDB2EE22E73260630F5001330F40011
:100DCE00AD30F300F30BE92EF40BE92EF50BE92E03
:100DDE00F02E5F260630F5001330F400AD30F30030
:100DEE00F30BF72EF40BF72EF50BF72EFE2E5F26D8
:100DFE000630F5001330F400AD30F300F30B052F81
:100E0E00F40B052FF50B052F0C2F73260630F5006E
:100E1E001330F400AD30F300F30B132FF40B132F3C
:100E2E00F50B132F1A2F5F260630F5001330F40042
:100E3E00AD30F300F30B212FF40B212FF50B212FE7
:100E4E00282F5F260630F5001330F400AD30F30086
:100E5E00F30B2F2FF40B2F2FF50B2F2F362F5F2683
:100E6E000630F5001330F400AD30F300F30B3D2FD8
:100E7E00F40B3D2FF50B3D2F442F73260630F50056
:100E8E001330F400AD30F300F30B4B2FF40B4B2F5C
:100E9E00F50B4B2F522F5F260630F5001330F40062
:100EAE00AD30F300F30B592FF40B592FF50B592FCF
:100EBE00602F5F260630F5001330F400AD30F300DE
:100ECE00F30B672FF40B672FF50B672F6E2F73261F
:100EDE000630F5001330F400AD30F300F30B752F30
:100EEE00F40B752FF50B752F7C2F73260630F5003E
:100EFE001330F400AD30F300F30B832FF40B832F7C
:100F0E00F50B832F8A2F73260630F5001330F4006D
:100F1E00AD30F300F30B912FF40B912FF50B912FB6
:100F2E00982F73260630F5001330F400AD30F30021
:100F3E00F30B9F2FF40B9F2FF50B9F2FA62F5F26E2
:100F4E000630F5001330F400AD30F300F30BAD2F87
:100F5E00F40BAD2FF50BAD2FB42F73260630F50025
:100F6E001330F400AD30F300F30BBB2FF40BBB2F9B
:100F7E00F50BBB2FC22F5F260630F5001330F400A1
:100F8E00AD30F300F30BC92FF40BC92FF50BC92F9E
:100F9E00D02F73260630F5001330F400AD30F30079
:100FAE00F30BD72FF40BD72FF50BD72FDE2F5F2692
:100FBE000630F5001330F400AD30F300F30BE52FDF
:100FCE00F40BE52FF50BE52FEC2F5F2683120313A1
:100FDE0006103330F500BB30F400DF30F300F30BB6
:100FEE00F62FF40BF62FF50BF62FFD2F8E2E830119
:020FFE00872E3C
:02400E0019FF98
:00000001FF
