:02000000FE2FD1
:100F82008312031385144130F100EE30F000F00BB0
:100F9200C82FF10BC82F000083120313851008001D
:100FA2008312031385140230F2000430F100BA30C8
:100FB200F000F00BDA2FF10BDA2FF20BDA2F000030
:100FC200831203138510080083160313860183120C
:100FD20003138601FC30F30073088316031385059F
:100FE200FC30F30073088312031385056430F400A8
:0E0FF2000030F500C127D127FB2F8301E52F2A
:02400E00FFFFB2
:00000001FF
