:02000000FE2FD1
:100F80000730831203139F04831603130610861081
:100F90008612831206140630F2001330F100AD30D1
:100FA000F000F00BD12FF10BD12FF20BD12FD82F56
:100FB00083120313861406100630F2001330F1007A
:100FC000AD30F000F00BE22FF10BE22FF20BE22F2D
:100FD000E92F8312031386160630F2001330F10056
:100FE000AD30F000F00BF22FF10BF22FF20BF22FDD
:100FF000F92F8312031386128610C92F8301C02F85
:02400E00193F58
:00000001FF
